:020000040000FA
:100000000C9463000C948B000C948B000C94E7030D
:100010000C94E7030C94E7030C948B000C948B0076
:100020000C948B000C948B000C948B000C948B0024
:100030000C948B000C948B000C948B000C948B0014
:100040000C9445030C948B000C94B5030C948F0313
:100050000C948B000C948B000C948B000C948B00F4
:100060000C948B000C948B000000000024002700EF
:100070002A0000000008000201000003040700003D
:1000800000000000000000000000230026002900FE
:1000900000000000250028002B00040404040404D0
:1000A0000404020202020202030303030303010227
:1000B00004081020408001020408102001020408F6
:1000C00010205F04B80611241FBECFEFD8E0DEBFBA
:1000D000CDBF11E0A0E0B1E0EEECFDE002C0059084
:1000E0000D92AA3AB107D9F722E0AAEAB1E001C01D
:1000F0001D92A33BB207E1F710E0C2E6D0E004C0D6
:100100002197FE010E94D406C136D107C9F70E948B
:100110000A050C94DA060C940000833081F028F470
:10012000813099F08230A9F008958730A9F08830A5
:10013000C9F08430B1F4809180008F7D03C080913C
:1001400080008F7780938000089584B58F7784BD79
:10015000089584B58F7DFBCF8091B0008F77809319
:10016000B00008958091B0008F7DF9CF1F93CF9399
:10017000DF93282F30E0F901EE58FF4F8491F90109
:10018000E255FF4FD491F901E656FF4FC491CC23BD
:10019000A9F0162F81110E948D00EC2FF0E0EE0FD8
:1001A000FF1FE057FF4FA591B4918FB7F894EC91E2
:1001B000111108C0D095DE23DC938FBFDF91CF9162
:1001C0001F910895DE2BF8CFCF93DF9390E0FC01D1
:1001D000E255FF4F249186569F4FFC01849188235E
:1001E000D1F090E0880F991FFC01E859FF4FA591CD
:1001F000B491FC01E057FF4FC591D49161110EC03D
:100200009FB7F8948C91E22FE0958E238C932881F0
:10021000E223E8839FBFDF91CF9108958FB7F894D1
:10022000EC91E22BEC938FBFF6CF3FB7F89480911F
:10023000F3019091F401A091F501B091F60126B57A
:10024000A89B05C02F3F19F00196A11DB11D3FBF0E
:10025000BA2FA92F982F8827BC01CD01620F711DDD
:10026000811D911D42E0660F771F881F991F4A95D7
:10027000D1F708958F929F92AF92BF92CF92DF9263
:10028000EF92FF924B015C010E9415016B017C0112
:100290000E9415016C197D098E099F09683E734003
:1002A00081059105A8F321E0821A9108A108B108FF
:1002B00088EEC80E83E0D81EE11CF11C8114910465
:1002C000A104B10429F7FF90EF90DF90CF90BF9089
:1002D000AF909F908F900895AF92BF92CF92DF9290
:1002E000EF92FF920F931F93CF93DF936C017B01EB
:1002F0008B01040F151FEB015E01AE18BF08C0177C
:10030000D10759F06991D601ED91FC910190F081EE
:10031000E02DC6010995892B79F7C501DF91CF91B1
:100320001F910F91FF90EF90DF90CF90BF90AF9013
:100330000895FC01538D448D252F30E0842F90E0EB
:10034000821B930B541710F0CF96089501970895D0
:10035000FC01918D828D981761F0A28DAE0FBF2F99
:10036000B11D5D968C91928D9F5F9F73928F90E0EF
:1003700008958FEF9FEF0895FC01918D828D98175E
:1003800031F0828DE80FF11D858D90E008958FEF9B
:100390009FEF0895FC01918D228D892F90E0805C64
:1003A0009F4F821B91098F739927089587EF91E0E2
:1003B0000E94CA0121E0892B09F420E0822F0895D0
:1003C00080E090E0892B29F00E94D60181110C94E5
:1003D00000000895FC01A48DA80FB92FB11DA35AE8
:1003E000BF4F2C91848D90E001968F739927848F55
:1003F000A689B7892C93A089B1898C918370806478
:100400008C93938D848D981306C00288F389E02D18
:1004100080818F7D80830895EF92FF920F931F93C9
:10042000CF93DF93EC0181E0888F9B8D8C8D9813A7
:100430001AC0E889F989808185FF15C09FB7F894B3
:10044000EE89FF896083E889F989808183708064FF
:1004500080839FBF81E090E0DF91CF911F910F914A
:10046000FF90EF900895F62E0B8D10E00F5F1F4F59
:100470000F731127E02E8C8D8E110CC00FB607FC68
:10048000FACFE889F989808185FFF5CFCE010E94F6
:10049000EA01F1CFEB8DEC0FFD2FF11DE35AFF4F79
:1004A000F0829FB7F8940B8FEA89FB898081806284
:1004B000CFCFCF93DF93EC01888D8823B9F0AA8941
:1004C000BB89E889F9898C9185FD03C0808186FD0F
:1004D0000DC00FB607FCF7CF8C9185FFF2CF80815E
:1004E00085FFEDCFCE010E94EA01E9CFDF91CF91E8
:1004F00008952091EC013091ED012817390771F42E
:100500009091EA018091EB01981741F0E091EA01A6
:10051000F0E0E655FE4F808190E008958FEF9FEF69
:1005200008950895EF92FF920F931F93CF93DF9357
:10053000DC015C96ED90FC905D97E114F10479F498
:1005400081E090E013969C938E93129790E080E068
:10055000DF91CF911F910F91FF90EF9008955196E9
:10056000ED91FC91529750968C915097982F9095C1
:100570000FB75E962C915E97122F127021FD609539
:10058000F8942081112319F1282B2083E70121976A
:10059000F1F728E0462F50E0308160FF1AC0382B79
:1005A0003083E7012197F1F7BA01759567952150DE
:1005B00089F7112381F08081892380830FBF5C96A6
:1005C0008D919C910197F1F781E090E0C1CF2923B3
:1005D000DCCF3923E5CF9081892BEFCF2091EC013F
:1005E0003091ED012817390761F48091EB012091DA
:1005F000EA0190E0805C9F4F821B91098F739927DD
:10060000089590E080E008952091EC013091ED0193
:1006100028173907B9F49091EA018091EB019817F6
:1006200089F0E091EA01F0E0E655FE4F80812091EB
:10063000EA0130E02F5F3F4F2F7333272093EA0109
:1006400090E008958FEF9FEF089590E080E0089587
:10065000CF93DF93FC0101900020E9F73197AF01C0
:10066000481B590BBC0184E992E00E946C01EC012B
:1006700042E050E064E271E084E992E00E946C01A3
:100680008C0F9D1FDF91CF9108951F920F920FB68F
:100690000F9211242F933F938F939F93AF93BF9308
:1006A0008091EF019091F001A091F101B091F201E0
:1006B0003091EE0123E0230F2D3758F50196A11D4F
:1006C000B11D2093EE018093EF019093F001A09370
:1006D000F101B093F2018091F3019091F401A091A6
:1006E000F501B091F6010196A11DB11D8093F301B2
:1006F0009093F401A093F501B093F601BF91AF91EF
:100700009F918F913F912F910F900FBE0F901F904F
:10071000189526E8230F0296A11DB11DD2CF1F9276
:100720000F920FB60F9211242F933F934F935F9325
:100730006F937F938F939F93AF93BF93EF93FF93A9
:1007400087EF91E00E94EA01FF91EF91BF91AF9195
:100750009F918F917F916F915F914F913F912F91D9
:100760000F900FBE0F901F9018951F920F920FB60B
:100770000F9211242F938F939F93EF93FF93E09108
:100780000702F09108028081E0910D02F0910E02C3
:1007900082FD1BC09081809110028F5F8F7320912A
:1007A0001102821741F0E0911002F0E0E950FE4F93
:1007B000958F80931002FF91EF919F918F912F91D0
:1007C0000F900FBE0F901F9018958081F4CF1F924D
:1007D0000F920FB60F9211242F933F934F935F9375
:1007E0006F937F938F939F93AF93BF93EF93FF93F9
:1007F000E091EC01F091ED01309749F0A685B785C5
:100800008585968D91FF14C09C918923A1F4FF9159
:10081000EF91BF91AF919F918F917F916F915F9178
:100820004F913F912F910F900FBE0F901F901895F1
:100830009C91892361F7A389B4899C9185898095CE
:1008400089238C93868997890197F1F7608D718D43
:10085000A685B785558538E020E0CB010197F1F7F3
:10086000822F90E095958795282F4C91452309F08C
:100870002068315091F7868D81FD20958091EB01A4
:1008800090E001968F7399273091EA01381799F01B
:10089000A091EB01B0E0A655BE4F2C938093EB01E5
:1008A000828D938D0197F1F7A389B4898C919589F5
:1008B000892B8C93ACCF868D8160868FF1CF10927F
:1008C000FA011092F90188EE93E0A0E0B0E0809385
:1008D000FB019093FC01A093FD01B093FE0124E085
:1008E00031E03093F8012093F70125EC30E03093AC
:1008F00004022093030224EC30E03093060220939C
:10090000050220EC30E0309308022093070221EC2E
:1009100030E030930A022093090222EC30E0309359
:100920000C0220930B0226EC30E030930E02209351
:100930000D021092100210921102109212021092E7
:10094000130210929702109296028093980290934D
:100950009902A0939A02B0939B0286E191E0909352
:100960009502809394021092AB021092AA02109208
:10097000AD021092AC021092AF021092AE02109231
:10098000B1021092B0026091B2026E7F6D7F6093EF
:10099000B2026695617081E068278BE00E94B60024
:1009A00061E08BE00E94E400E9EBF0E0E491E09389
:1009B000A402E5EAF0E0E491F0E0EE0FFF1FE0575B
:1009C000FF4F859194919093A6028093A50260E0D9
:1009D0008AE00E94E4008091B20281FD04C061E0DF
:1009E0008AE00E94B6008AE08093A002E8EBF0E083
:1009F000E491E093A102E4EAF0E0E491F0E0EE0F8C
:100A0000FF1FEA57FF4F859194919093A302809323
:100A1000A2020895789484B5826084BD84B5816013
:100A200084BD85B5826085BD85B5816085BD8091B9
:100A30006E00816080936E00109281008091810031
:100A40008260809381008091810081608093810029
:100A5000809180008160809380008091B1008460EB
:100A60008093B1008091B00081608093B00080914C
:100A70007A00846080937A0080917A00826080930B
:100A80007A0080917A00816080937A0080917A0068
:100A9000806880937A001092C10060E082E00E943A
:100AA000E40061E083E00E94E40061E084E00E94F1
:100AB000E400E0910702F091080282E08083E09177
:100AC0000302F09104021082E0910502F091060207
:100AD0008FEC808310920F02E0910B02F0910C02D8
:100AE00086E08083E0910902F0910A0280818061B2
:100AF0008083E0910902F0910A02808188608083FE
:100B0000E0910902F0910A02808180688083E0917F
:100B10000902F0910A0280818F7D80831092AF02DA
:100B20001092AE021092AD021092AC021092AB0283
:100B30001092AA028DE991E09093B1028093B002E5
:100B40009091A002963108F047C02DEB30E0309331
:100B5000AB022093AA022BE931E03093AD0220933F
:100B6000AC022CE231E03093AF022093AE02209130
:100B7000680084E0983048F031E09E3008F430E0BE
:100B800081E001C0880F3A95EAF7822B80936800D4
:100B90002DE630E0983050F02BE630E09E3030F01B
:100BA0002CE630E0963110F030E020E03093A802DF
:100BB0002093A702292F30E0983008F0CCC081E0C4
:100BC00001C0880F9A95EAF78093A9028091B0023C
:100BD0009091B1020197F1F78091AE029091AF022E
:100BE000892B49F1E091EC01F091ED0182E0E439CB
:100BF000F80709F1309739F0A389B4899C91858968
:100C0000809589238C938091B2028E7F8093B2026B
:100C10001092EB011092EA0184E992E09093ED01C9
:100C20008093EC01E091A702F091A802808190915D
:100C3000A902892B808368EE73E080E090E00E9437
:100C40003A0187E291E00E94280368EE73E080E0B9
:100C500090E00E943A018AE291E00E94280368EB4A
:100C60007BE080E090E00E943A01C4E7D0E000EB36
:100C700010E09CE9E92E90E0F92E20E0C22E20E061
:100C8000D22EFE018491F801A490F701B490BB200C
:100C900009F455C081110E948D00EB2DF0E0EE0F9C
:100CA000FF1FEA57FF4FA591B4918C91A82209F438
:100CB00046C086E591E00E94280368EE73E080E07C
:100CC00090E00E943A0182E691E00E94280360EDE4
:100CD00077E080E090E00E943A0186E891E00E948F
:100CE000280368EE73E080E090E00E943A0184E916
:100CF00091E00E94280368EE73E080E090E00E949B
:100D00003A018DE991E00E94280368EE73E080E0EB
:100D100090E00E943A0161E084E00E94B60068EE33
:100D200073E080E090E00E943A0160E084E00E947D
:100D3000B60068EE73E080E090E00E943A01C114D2
:100D4000D10409F49ECF0E94D601882309F499CFDB
:100D50000E94000096CF9E3040F42850310981E077
:100D600001C0880F2A95EAF72FCF2E503109F7CF0F
:100D700086E191E090939502809394028091EC013A
:100D80009091ED018459924071F4E091A702F091A5
:100D9000A80290818091A902809589238083109276
:100DA000ED011092EC010895EE0FFF1F0590F491F4
:100DB000E02D099410E0C2E6D0E004C0FE010E94DC
:100DC000D4062196C336D107C9F7F894FFCF0000A7
:100DD00000000C026C0199015902CA01A801BC0172
:100DE0000000000092026C0125039102EE02040350
:100DF00079020D0A0041540041542B43574A415097
:100E00003D2250616E69632041742054686520431F
:100E10006973636F222C226B617261746173693034
:100E20003031220041542B4349504D55583D30003C
:100E300041542B43495053544152543D2254435042
:100E4000222C2249502041444452455353222C50D5
:100E50004F52540041542B43495053454E443D3169
:100E60003200504F574552204F4E0041542B4349BA
:080E700050434C4F53450000B4
:107E0000112484B714BE81FFF0D085E080938100F7
:107E100082E08093C00088E18093C10086E0809377
:107E2000C20080E18093C4008EE0C9D0259A86E02C
:107E300020E33CEF91E0309385002093840096BBD3
:107E4000B09BFECF1D9AA8958150A9F7CC24DD24C4
:107E500088248394B5E0AB2EA1E19A2EF3E0BF2EE7
:107E6000A2D0813461F49FD0082FAFD0023811F036
:107E7000013811F484E001C083E08DD089C08234E0
:107E800011F484E103C0853419F485E0A6D080C0E4
:107E9000853579F488D0E82EFF2485D0082F10E0AE
:107EA000102F00270E291F29000F111F8ED06801E7
:107EB0006FC0863521F484E090D080E0DECF843638
:107EC00009F040C070D06FD0082F6DD080E0C81688
:107ED00080E7D80618F4F601B7BEE895C0E0D1E017
:107EE00062D089930C17E1F7F0E0CF16F0E7DF06D8
:107EF00018F0F601B7BEE89568D007B600FCFDCFD4
:107F0000A601A0E0B1E02C9130E011968C91119780
:107F100090E0982F8827822B932B1296FA010C0160
:107F200087BEE89511244E5F5F4FF1E0A038BF0790
:107F300051F7F601A7BEE89507B600FCFDCF97BE46
:107F4000E89526C08437B1F42ED02DD0F82E2BD052
:107F50003CD0F601EF2C8F010F5F1F4F84911BD097
:107F6000EA94F801C1F70894C11CD11CFA94CF0C13
:107F7000D11C0EC0853739F428D08EE10CD085E9AC
:107F80000AD08FE07ACF813511F488E018D01DD067
:107F900080E101D065CF982F8091C00085FFFCCF94
:107FA0009093C60008958091C00087FFFCCF809118
:107FB000C00084FD01C0A8958091C6000895E0E648
:107FC000F0E098E1908380830895EDDF803219F02E
:107FD00088E0F5DFFFCF84E1DECF1F93182FE3DFCA
:107FE0001150E9F7F2DF1F91089580E0E8DFEE27F6
:047FF000FF270994CA
:027FFE00040479
:00000001FF
